{
  "contractName": "Channels",
  "abi": [
    {
      "constant": false,
      "inputs": [
        {
          "name": "channel",
          "type": "bytes32"
        },
        {
          "name": "value",
          "type": "uint256"
        },
        {
          "name": "v",
          "type": "uint8"
        },
        {
          "name": "r",
          "type": "bytes32"
        },
        {
          "name": "s",
          "type": "bytes32"
        }
      ],
      "name": "claim",
      "outputs": [],
      "payable": false,
      "stateMutability": "nonpayable",
      "type": "function"
    },
    {
      "constant": true,
      "inputs": [
        {
          "name": "channel",
          "type": "bytes32"
        }
      ],
      "name": "isValidChannel",
      "outputs": [
        {
          "name": "",
          "type": "bool"
        }
      ],
      "payable": false,
      "stateMutability": "view",
      "type": "function"
    },
    {
      "constant": true,
      "inputs": [],
      "name": "deposits",
      "outputs": [
        {
          "name": "",
          "type": "uint256"
        }
      ],
      "payable": false,
      "stateMutability": "view",
      "type": "function"
    },
    {
      "constant": false,
      "inputs": [],
      "name": "createChannel",
      "outputs": [],
      "payable": true,
      "stateMutability": "payable",
      "type": "function"
    },
    {
      "constant": true,
      "inputs": [
        {
          "name": "channel",
          "type": "bytes32"
        },
        {
          "name": "recipient",
          "type": "address"
        },
        {
          "name": "value",
          "type": "uint256"
        },
        {
          "name": "v",
          "type": "uint8"
        },
        {
          "name": "r",
          "type": "bytes32"
        },
        {
          "name": "s",
          "type": "bytes32"
        }
      ],
      "name": "verify",
      "outputs": [
        {
          "name": "",
          "type": "bool"
        }
      ],
      "payable": false,
      "stateMutability": "view",
      "type": "function"
    },
    {
      "constant": true,
      "inputs": [
        {
          "name": "",
          "type": "bytes32"
        }
      ],
      "name": "channels",
      "outputs": [
        {
          "name": "owner",
          "type": "address"
        },
        {
          "name": "value",
          "type": "uint256"
        },
        {
          "name": "validUntil",
          "type": "uint256"
        },
        {
          "name": "valid",
          "type": "bool"
        }
      ],
      "payable": false,
      "stateMutability": "view",
      "type": "function"
    },
    {
      "constant": true,
      "inputs": [
        {
          "name": "channel",
          "type": "bytes32"
        }
      ],
      "name": "getChannelValidUntil",
      "outputs": [
        {
          "name": "",
          "type": "uint256"
        }
      ],
      "payable": false,
      "stateMutability": "view",
      "type": "function"
    },
    {
      "constant": true,
      "inputs": [],
      "name": "owner",
      "outputs": [
        {
          "name": "",
          "type": "address"
        }
      ],
      "payable": false,
      "stateMutability": "view",
      "type": "function"
    },
    {
      "constant": true,
      "inputs": [
        {
          "name": "channel",
          "type": "bytes32"
        },
        {
          "name": "recipient",
          "type": "address"
        },
        {
          "name": "value",
          "type": "uint256"
        }
      ],
      "name": "getHash",
      "outputs": [
        {
          "name": "",
          "type": "bytes32"
        }
      ],
      "payable": false,
      "stateMutability": "pure",
      "type": "function"
    },
    {
      "constant": true,
      "inputs": [
        {
          "name": "channel",
          "type": "bytes32"
        }
      ],
      "name": "getChannelOwner",
      "outputs": [
        {
          "name": "",
          "type": "address"
        }
      ],
      "payable": false,
      "stateMutability": "view",
      "type": "function"
    },
    {
      "constant": false,
      "inputs": [
        {
          "name": "channel",
          "type": "bytes32"
        }
      ],
      "name": "deposit",
      "outputs": [],
      "payable": true,
      "stateMutability": "payable",
      "type": "function"
    },
    {
      "constant": false,
      "inputs": [
        {
          "name": "channel",
          "type": "bytes32"
        }
      ],
      "name": "recipientReclaim",
      "outputs": [],
      "payable": false,
      "stateMutability": "nonpayable",
      "type": "function"
    },
    {
      "constant": true,
      "inputs": [
        {
          "name": "channel",
          "type": "bytes32"
        }
      ],
      "name": "getChannelValue",
      "outputs": [
        {
          "name": "",
          "type": "uint256"
        }
      ],
      "payable": false,
      "stateMutability": "view",
      "type": "function"
    },
    {
      "constant": false,
      "inputs": [],
      "name": "withdrawExtra",
      "outputs": [],
      "payable": false,
      "stateMutability": "nonpayable",
      "type": "function"
    },
    {
      "constant": true,
      "inputs": [
        {
          "name": "",
          "type": "bytes32"
        }
      ],
      "name": "withdraws",
      "outputs": [
        {
          "name": "recipient",
          "type": "address"
        },
        {
          "name": "claimable",
          "type": "uint256"
        }
      ],
      "payable": false,
      "stateMutability": "view",
      "type": "function"
    },
    {
      "constant": false,
      "inputs": [
        {
          "name": "channel",
          "type": "bytes32"
        }
      ],
      "name": "channelOwnerReclaim",
      "outputs": [],
      "payable": false,
      "stateMutability": "nonpayable",
      "type": "function"
    },
    {
      "constant": false,
      "inputs": [
        {
          "name": "_to",
          "type": "address"
        }
      ],
      "name": "transferOwnership",
      "outputs": [],
      "payable": false,
      "stateMutability": "nonpayable",
      "type": "function"
    },
    {
      "inputs": [],
      "payable": false,
      "stateMutability": "nonpayable",
      "type": "constructor"
    },
    {
      "anonymous": false,
      "inputs": [
        {
          "indexed": true,
          "name": "owner",
          "type": "address"
        },
        {
          "indexed": false,
          "name": "channel",
          "type": "bytes32"
        }
      ],
      "name": "LogNewChannel",
      "type": "event"
    },
    {
      "anonymous": false,
      "inputs": [
        {
          "indexed": true,
          "name": "owner",
          "type": "address"
        },
        {
          "indexed": true,
          "name": "channel",
          "type": "bytes32"
        }
      ],
      "name": "LogDeposit",
      "type": "event"
    },
    {
      "anonymous": false,
      "inputs": [
        {
          "indexed": true,
          "name": "who",
          "type": "address"
        },
        {
          "indexed": true,
          "name": "channel",
          "type": "bytes32"
        }
      ],
      "name": "LogClaim",
      "type": "event"
    },
    {
      "anonymous": false,
      "inputs": [
        {
          "indexed": true,
          "name": "channel",
          "type": "bytes32"
        }
      ],
      "name": "LogReclaim",
      "type": "event"
    }
  ],
  "bytecode": "0x6060604052341561000f57600080fd5b336000806101000a81548173ffffffffffffffffffffffffffffffffffffffff021916908373ffffffffffffffffffffffffffffffffffffffff1602179055506000600481905550611525806100666000396000f3006060604052600436106100f1576000357c0100000000000000000000000000000000000000000000000000000000900463ffffffff16806312921758146100f65780631336e01f1461014c578063323a5e0b1461018b578063423d4ef2146101b45780634754d590146101be5780637a7ebd7b1461024b5780638a1aaa75146102cb5780638da5cb5b14610306578063a99a8ae81461035b578063aba60a70146103c6578063b214faa51461042d578063b357b02814610449578063d05121cc14610470578063dedad839146104ab578063e09ab428146104c0578063ea0d01811461052e578063f2fde38b14610555575b600080fd5b341561010157600080fd5b61014a60048080356000191690602001909190803590602001909190803560ff16906020019091908035600019169060200190919080356000191690602001909190505061058e565b005b341561015757600080fd5b6101716004808035600019169060200190919050506107b6565b604051808215151515815260200191505060405180910390f35b341561019657600080fd5b61019e61088b565b6040518082815260200191505060405180910390f35b6101bc610891565b005b34156101c957600080fd5b61023160048080356000191690602001909190803573ffffffffffffffffffffffffffffffffffffffff1690602001909190803590602001909190803560ff169060200190919080356000191690602001909190803560001916906020019091905050610a61565b604051808215151515815260200191505060405180910390f35b341561025657600080fd5b610270600480803560001916906020019091905050610be9565b604051808573ffffffffffffffffffffffffffffffffffffffff1673ffffffffffffffffffffffffffffffffffffffff1681526020018481526020018381526020018215151515815260200194505050505060405180910390f35b34156102d657600080fd5b6102f0600480803560001916906020019091905050610c46565b6040518082815260200191505060405180910390f35b341561031157600080fd5b610319610c6e565b604051808273ffffffffffffffffffffffffffffffffffffffff1673ffffffffffffffffffffffffffffffffffffffff16815260200191505060405180910390f35b341561036657600080fd5b6103a860048080356000191690602001909190803573ffffffffffffffffffffffffffffffffffffffff16906020019091908035906020019091905050610c93565b60405180826000191660001916815260200191505060405180910390f35b34156103d157600080fd5b6103eb600480803560001916906020019091905050610d07565b604051808273ffffffffffffffffffffffffffffffffffffffff1673ffffffffffffffffffffffffffffffffffffffff16815260200191505060405180910390f35b610447600480803560001916906020019091905050610d4f565b005b341561045457600080fd5b61046e600480803560001916906020019091905050610e85565b005b341561047b57600080fd5b61049560048080356000191690602001909190505061103b565b6040518082815260200191505060405180910390f35b34156104b657600080fd5b6104be611063565b005b34156104cb57600080fd5b6104e5600480803560001916906020019091905050611160565b604051808373ffffffffffffffffffffffffffffffffffffffff1673ffffffffffffffffffffffffffffffffffffffff1681526020018281526020019250505060405180910390f35b341561053957600080fd5b6105536004808035600019169060200190919050506111a4565b005b341561056057600080fd5b61058c600480803573ffffffffffffffffffffffffffffffffffffffff169060200190919050506113ae565b005b6000610598611488565b6000803393506105ac89858a8a8a8a610a61565b15156105b757600080fd5b600260008a60001916600019168152602001908152602001600020608060405190810160405290816000820160009054906101000a900473ffffffffffffffffffffffffffffffffffffffff1673ffffffffffffffffffffffffffffffffffffffff1673ffffffffffffffffffffffffffffffffffffffff16815260200160018201548152602001600282015481526020016003820160009054906101000a900460ff161515151581525050925082602001519150600090508260200151881115610693578260200151905060008360200181815250506106a7565b879050878360200181815103915081815250505b600083606001901515908115158152505060408051908101604052808573ffffffffffffffffffffffffffffffffffffffff16815260200182815250600360008b6000191660001916815260200190815260200160002060008201518160000160006101000a81548173ffffffffffffffffffffffffffffffffffffffff021916908373ffffffffffffffffffffffffffffffffffffffff16021790555060208201518160010155905050818184602001510114151561076357fe5b88600019168473ffffffffffffffffffffffffffffffffffffffff167f654ea8404c7b374ec0f42582a75232aa47efecf91459ee704f9566d69a42c9da60405160405180910390a3505050505050505050565b60006107c0611488565b600260008460001916600019168152602001908152602001600020608060405190810160405290816000820160009054906101000a900473ffffffffffffffffffffffffffffffffffffffff1673ffffffffffffffffffffffffffffffffffffffff1673ffffffffffffffffffffffffffffffffffffffff16815260200160018201548152602001600282015481526020016003820160009054906101000a900460ff161515151581525050905080606001518015610883575042816040015110155b915050919050565b60015481565b600060046000815480929190600101919050556000809054906101000a900473ffffffffffffffffffffffffffffffffffffffff16604051808381526020018273ffffffffffffffffffffffffffffffffffffffff1673ffffffffffffffffffffffffffffffffffffffff166c0100000000000000000000000002815260140192505050604051809103902090506080604051908101604052803373ffffffffffffffffffffffffffffffffffffffff16815260200134815260200162015180420181526020016001151581525060026000836000191660001916815260200190815260200160002060008201518160000160006101000a81548173ffffffffffffffffffffffffffffffffffffffff021916908373ffffffffffffffffffffffffffffffffffffffff160217905550602082015181600101556040820151816002015560608201518160030160006101000a81548160ff021916908315150217905550905050346001600082825401925050819055503373ffffffffffffffffffffffffffffffffffffffff167fb0496ccfce2bc0c2cffa260c1c2f8fadafa73f8ed4bd9a88feb31922d9c7e91a8260405180826000191660001916815260200191505060405180910390a250565b6000610a6b611488565b600260008960001916600019168152602001908152602001600020608060405190810160405290816000820160009054906101000a900473ffffffffffffffffffffffffffffffffffffffff1673ffffffffffffffffffffffffffffffffffffffff1673ffffffffffffffffffffffffffffffffffffffff16815260200160018201548152602001600282015481526020016003820160009054906101000a900460ff16151515158152505090506001610b26898989610c93565b868686604051600081526020016040526000604051602001526040518085600019166000191681526020018460ff1660ff16815260200183600019166000191681526020018260001916600019168152602001945050505050602060405160208103908084039060008661646e5a03f11515610ba157600080fd5b50506020604051035173ffffffffffffffffffffffffffffffffffffffff16816000015173ffffffffffffffffffffffffffffffffffffffff16149150509695505050505050565b60026020528060005260406000206000915090508060000160009054906101000a900473ffffffffffffffffffffffffffffffffffffffff16908060010154908060020154908060030160009054906101000a900460ff16905084565b6000600260008360001916600019168152602001908152602001600020600201549050919050565b6000809054906101000a900473ffffffffffffffffffffffffffffffffffffffff1681565b60008383836040518084600019166000191681526020018373ffffffffffffffffffffffffffffffffffffffff1673ffffffffffffffffffffffffffffffffffffffff166c010000000000000000000000000281526014018281526020019350505050604051809103902090509392505050565b600060026000836000191660001916815260200190815260200160002060000160009054906101000a900473ffffffffffffffffffffffffffffffffffffffff169050919050565b610d57611488565b610d60826107b6565b1515610d6b57600080fd5b600260008360001916600019168152602001908152602001600020608060405190810160405290816000820160009054906101000a900473ffffffffffffffffffffffffffffffffffffffff1673ffffffffffffffffffffffffffffffffffffffff1673ffffffffffffffffffffffffffffffffffffffff16815260200160018201548152602001600282015481526020016003820160009054906101000a900460ff1615151515815250509050348160200181815101915081815250503460016000828254019250508190555081600019163373ffffffffffffffffffffffffffffffffffffffff167f47679b57aa02188503a68bd732137d937db0bc7bc6a123ff5790895a9399ffce60405160405180910390a35050565b610e8d6114c9565b6003600083600019166000191681526020019081526020016000206040805190810160405290816000820160009054906101000a900473ffffffffffffffffffffffffffffffffffffffff1673ffffffffffffffffffffffffffffffffffffffff1673ffffffffffffffffffffffffffffffffffffffff1681526020016001820154815250509050806000015173ffffffffffffffffffffffffffffffffffffffff163373ffffffffffffffffffffffffffffffffffffffff16141515610f5357600080fd5b6000816020015114151515610f6757600080fd5b80602001513073ffffffffffffffffffffffffffffffffffffffff163110151515610f9157600080fd5b8060200151600160008282540392505081905550806000015173ffffffffffffffffffffffffffffffffffffffff166108fc82602001519081150290604051600060405180830381858888f193505050501515610fea57fe5b600360008360001916600019168152602001908152602001600020600080820160006101000a81549073ffffffffffffffffffffffffffffffffffffffff0219169055600182016000905550505050565b6000600260008360001916600019168152602001908152602001600020600101549050919050565b6000809054906101000a900473ffffffffffffffffffffffffffffffffffffffff1673ffffffffffffffffffffffffffffffffffffffff163373ffffffffffffffffffffffffffffffffffffffff161415156110be57600080fd5b6001543073ffffffffffffffffffffffffffffffffffffffff16311115156110e557600080fd5b6000809054906101000a900473ffffffffffffffffffffffffffffffffffffffff1673ffffffffffffffffffffffffffffffffffffffff166108fc6001543073ffffffffffffffffffffffffffffffffffffffff1631039081150290604051600060405180830381858888f19350505050151561115e57fe5b565b60036020528060005260406000206000915090508060000160009054906101000a900473ffffffffffffffffffffffffffffffffffffffff16908060010154905082565b6111ac611488565b600260008360001916600019168152602001908152602001600020608060405190810160405290816000820160009054906101000a900473ffffffffffffffffffffffffffffffffffffffff1673ffffffffffffffffffffffffffffffffffffffff1673ffffffffffffffffffffffffffffffffffffffff16815260200160018201548152602001600282015481526020016003820160009054906101000a900460ff1615151515815250509050806000015173ffffffffffffffffffffffffffffffffffffffff163373ffffffffffffffffffffffffffffffffffffffff1614151561129857600080fd5b60008160200151141515156112ac57600080fd5b4281604001511015156112be57600080fd5b80602001513073ffffffffffffffffffffffffffffffffffffffff1631101515156112e857600080fd5b8060200151600160008282540392505081905550806000015173ffffffffffffffffffffffffffffffffffffffff166108fc82602001519081150290604051600060405180830381858888f19350505050151561134157fe5b600260008360001916600019168152602001908152602001600020600080820160006101000a81549073ffffffffffffffffffffffffffffffffffffffff0219169055600182016000905560028201600090556003820160006101000a81549060ff021916905550505050565b6000809054906101000a900473ffffffffffffffffffffffffffffffffffffffff1673ffffffffffffffffffffffffffffffffffffffff163373ffffffffffffffffffffffffffffffffffffffff1614151561140957600080fd5b600073ffffffffffffffffffffffffffffffffffffffff168173ffffffffffffffffffffffffffffffffffffffff161415151561144557600080fd5b806000806101000a81548173ffffffffffffffffffffffffffffffffffffffff021916908373ffffffffffffffffffffffffffffffffffffffff16021790555050565b608060405190810160405280600073ffffffffffffffffffffffffffffffffffffffff16815260200160008152602001600081526020016000151581525090565b6040805190810160405280600073ffffffffffffffffffffffffffffffffffffffff1681526020016000815250905600a165627a7a723058208ab663abf008ac430e5b284cef6b97acbc0f6f230875512f6285a73a907def1a0029",
  "source": "pragma solidity ^0.4.11;\n\nimport './SafeMath.sol';\n\ncontract Channels {\n  address public owner;\n  // deposits hold the total values used in payment channels\n  uint256 public deposits;\n\n  using SafeMath for uint256;\n\n  struct PaymentChannel {\n    address owner;\n    uint256 value;\n    uint validUntil;\n    bool valid;\n  }\n\n  // Channels uses asynchronous withdrawing for the recipients.\n  struct PaymentWithdraw {\n    address recipient;\n    uint256 claimable;\n  }\n\n  mapping(bytes32 => PaymentChannel) public channels;\n  mapping(bytes32 => PaymentWithdraw) public withdraws;\n  uint id;\n\n  event LogNewChannel(address indexed owner, bytes32 channel);\n  event LogDeposit(address indexed owner, bytes32 indexed channel);\n  event LogClaim(address indexed who, bytes32 indexed channel);\n  event LogReclaim(bytes32 indexed channel);\n\n  function Channels() public {\n    owner = msg.sender;\n    id = 0;\n  }\n\n  function transferOwnership(address _to) public {\n    require(msg.sender == owner);\n    require(_to != address(0));\n    owner = _to;\n  }\n\n  // Channels can not receive Ether by transactions or send, but can get some by mining or selfdestruct. The owner can get it back.\n  function withdrawExtra() public {\n    require(msg.sender == owner);\n    // owner can not get the deposits back\n    require(this.balance > deposits);\n    assert(owner.send(this.balance - deposits));\n  }\n\n  function createChannel() public payable {\n    bytes32 channel = keccak256(id++, owner);\n    channels[channel] = PaymentChannel(msg.sender, msg.value, block.timestamp + 1 days, true);\n    deposits += msg.value;\n    LogNewChannel(msg.sender, channel);\n  }\n\n  function getHash(bytes32 channel, address recipient, uint value) public pure returns(bytes32) {\n    return keccak256(channel, recipient, value);\n  }\n\n  function verify(bytes32 channel, address recipient, uint value, uint8 v, bytes32 r, bytes32 s) constant public returns(bool) {\n    PaymentChannel memory ch = channels[channel];\n    //return ch.valid && ch.validUntil > block.timestamp && ch.owner == ecrecover(getHash(channel, recipient, value), v, r, s);\n    return ch.owner == ecrecover(getHash(channel, recipient, value), v, r, s);\n  }\n\n  function claim(bytes32 channel, uint value, uint8 v, bytes32 r, bytes32 s) public {\n    address recipient = msg.sender;\n    require(verify(channel, recipient, value, v, r, s));\n    PaymentChannel memory ch = channels[channel];\n    uint256 total = ch.value;\n    uint256 claimable = 0;\n\n    if (value > ch.value) {\n      claimable = ch.value;\n      ch.value = 0;\n      } else {\n        claimable = value;\n        ch.value -= value;\n      }\n      ch.valid = false;\n\n      withdraws[channel] = PaymentWithdraw(recipient, claimable);\n\n      assert(ch.value + claimable == total);\n      LogClaim(recipient, channel);\n    }\n\n    function deposit(bytes32 channel) public payable {\n      require(isValidChannel(channel));\n      PaymentChannel memory ch = channels[channel];\n      ch.value += msg.value;\n      deposits += msg.value;\n      LogDeposit(msg.sender, channel);\n    }\n\n    function recipientReclaim(bytes32 channel) public {\n      PaymentWithdraw memory withdraw = withdraws[channel];\n      require(msg.sender == withdraw.recipient);\n      require(withdraw.claimable != 0);\n      require(this.balance >= withdraw.claimable);\n      deposits -= withdraw.claimable;\n      assert(withdraw.recipient.send(withdraw.claimable));\n      delete withdraws[channel];\n    }\n\n    function channelOwnerReclaim(bytes32 channel) public {\n      PaymentChannel memory ch = channels[channel];\n      require(msg.sender == ch.owner);\n      require(ch.value != 0);\n      require(ch.validUntil < block.timestamp);\n      require(this.balance >= ch.value);\n      deposits -= ch.value;\n      assert(ch.owner.send(ch.value));\n      delete channels[channel];\n    }\n\n    function getChannelValue(bytes32 channel) constant public returns(uint256) {\n      return channels[channel].value;\n    }\n\n    function getChannelOwner(bytes32 channel) constant public returns(address) {\n      return channels[channel].owner;\n    }\n\n    function  getChannelValidUntil(bytes32 channel) constant public returns(uint) {\n      return channels[channel].validUntil;\n    }\n    function isValidChannel(bytes32 channel) constant public returns(bool) {\n      PaymentChannel memory ch = channels[channel];\n      return ch.valid && ch.validUntil >= block.timestamp;\n    }\n  }\n",
  "sourcePath": "/Users/edouard/Downloads/demoSignEth/contracts/Channels.sol",
  "compiler": {
    "name": "solc",
    "version": "0.4.18+commit.9cf6e910.Emscripten.clang"
  },
  "schemaVersion": "1.0.1",
  "updatedAt": "2017-11-12T15:30:11.882Z"
}