{
  "contractName": "CheckSign",
  "abi": [
    {
      "constant": true,
      "inputs": [
        {
          "name": "_addr",
          "type": "address"
        },
        {
          "name": "value",
          "type": "uint256"
        },
        {
          "name": "v",
          "type": "uint8"
        },
        {
          "name": "r",
          "type": "bytes32"
        },
        {
          "name": "s",
          "type": "bytes32"
        }
      ],
      "name": "isTypedSigned",
      "outputs": [
        {
          "name": "",
          "type": "bool"
        }
      ],
      "payable": false,
      "stateMutability": "pure",
      "type": "function"
    },
    {
      "constant": true,
      "inputs": [
        {
          "name": "value",
          "type": "uint256"
        },
        {
          "name": "mess",
          "type": "string"
        },
        {
          "name": "v",
          "type": "uint8"
        },
        {
          "name": "r",
          "type": "bytes32"
        },
        {
          "name": "s",
          "type": "bytes32"
        }
      ],
      "name": "recoverTypedSignAddrDb",
      "outputs": [
        {
          "name": "",
          "type": "address"
        }
      ],
      "payable": false,
      "stateMutability": "pure",
      "type": "function"
    },
    {
      "constant": true,
      "inputs": [
        {
          "name": "value",
          "type": "uint256"
        },
        {
          "name": "v",
          "type": "uint8"
        },
        {
          "name": "r",
          "type": "bytes32"
        },
        {
          "name": "s",
          "type": "bytes32"
        }
      ],
      "name": "recoverTypedSignAddr",
      "outputs": [
        {
          "name": "",
          "type": "address"
        }
      ],
      "payable": false,
      "stateMutability": "pure",
      "type": "function"
    },
    {
      "constant": true,
      "inputs": [
        {
          "name": "_addr",
          "type": "address"
        },
        {
          "name": "msgHash",
          "type": "bytes32"
        },
        {
          "name": "v",
          "type": "uint8"
        },
        {
          "name": "r",
          "type": "bytes32"
        },
        {
          "name": "s",
          "type": "bytes32"
        }
      ],
      "name": "isSigned",
      "outputs": [
        {
          "name": "",
          "type": "bool"
        }
      ],
      "payable": false,
      "stateMutability": "pure",
      "type": "function"
    },
    {
      "constant": true,
      "inputs": [
        {
          "name": "msgHash",
          "type": "bytes32"
        },
        {
          "name": "v",
          "type": "uint8"
        },
        {
          "name": "r",
          "type": "bytes32"
        },
        {
          "name": "s",
          "type": "bytes32"
        }
      ],
      "name": "recoverAddr",
      "outputs": [
        {
          "name": "",
          "type": "address"
        }
      ],
      "payable": false,
      "stateMutability": "pure",
      "type": "function"
    }
  ],
  "bytecode": "0x6060604052341561000f57600080fd5b6108718061001e6000396000f30060606040526004361061006d576000357c0100000000000000000000000000000000000000000000000000000000900463ffffffff1680635dfe73e81461007257806361199129146100f25780637ba314ae146101be5780638677ebe814610247578063e5df669f146102cb575b600080fd5b341561007d57600080fd5b6100d8600480803573ffffffffffffffffffffffffffffffffffffffff1690602001909190803590602001909190803560ff169060200190919080356000191690602001909190803560001916906020019091905050610358565b604051808215151515815260200191505060405180910390f35b34156100fd57600080fd5b61017c600480803590602001909190803590602001908201803590602001908080601f0160208091040260200160405190810160405280939291908181526020018383808284378201915050505050509190803560ff169060200190919080356000191690602001909190803560001916906020019091905050610422565b604051808273ffffffffffffffffffffffffffffffffffffffff1673ffffffffffffffffffffffffffffffffffffffff16815260200191505060405180910390f35b34156101c957600080fd5b610205600480803590602001909190803560ff1690602001909190803560001916906020019091908035600019169060200190919050506104bf565b604051808273ffffffffffffffffffffffffffffffffffffffff1673ffffffffffffffffffffffffffffffffffffffff16815260200191505060405180910390f35b341561025257600080fd5b6102b1600480803573ffffffffffffffffffffffffffffffffffffffff169060200190919080356000191690602001909190803560ff16906020019091908035600019169060200190919080356000191690602001909190505061055a565b604051808215151515815260200191505060405180910390f35b34156102d657600080fd5b61031660048080356000191690602001909190803560ff16906020019091908035600019169060200190919080356000191690602001909190505061061c565b604051808273ffffffffffffffffffffffffffffffffffffffff1673ffffffffffffffffffffffffffffffffffffffff16815260200191505060405180910390f35b60008573ffffffffffffffffffffffffffffffffffffffff16600161037c876106af565b868686604051600081526020016040526000604051602001526040518085600019166000191681526020018460ff1660ff16815260200183600019166000191681526020018260001916600019168152602001945050505050602060405160208103908084039060008661646e5a03f115156103f757600080fd5b50506020604051035173ffffffffffffffffffffffffffffffffffffffff1614905095945050505050565b60006001610430878761073b565b858585604051600081526020016040526000604051602001526040518085600019166000191681526020018460ff1660ff16815260200183600019166000191681526020018260001916600019168152602001945050505050602060405160208103908084039060008661646e5a03f115156104ab57600080fd5b505060206040510351905095945050505050565b600060016104cc866106af565b858585604051600081526020016040526000604051602001526040518085600019166000191681526020018460ff1660ff16815260200183600019166000191681526020018260001916600019168152602001945050505050602060405160208103908084039060008661646e5a03f1151561054757600080fd5b5050602060405103519050949350505050565b60008573ffffffffffffffffffffffffffffffffffffffff16600186868686604051600081526020016040526000604051602001526040518085600019166000191681526020018460ff1660ff16815260200183600019166000191681526020018260001916600019168152602001945050505050602060405160208103908084039060008661646e5a03f115156105f157600080fd5b50506020604051035173ffffffffffffffffffffffffffffffffffffffff1614905095945050505050565b6000600185858585604051600081526020016040526000604051602001526040518085600019166000191681526020018460ff1660ff16815260200183600019166000191681526020018260001916600019168152602001945050505050602060405160208103908084039060008661646e5a03f1151561069c57600080fd5b5050602060405103519050949350505050565b600080600060405180807f75696e74206d6573736167650000000000000000000000000000000000000000815250600c019050604051809103902091508360405180828152602001915050604051809103902090508181604051808360001916600019168152602001826000191660001916815260200192505050604051809103902092505050919050565b600080600060405180807f75696e74206d6573736167650000000000000000000000000000000000000000815250600c01807f737472696e672074657874000000000000000000000000000000000000000000815250600b0190506040518091039020915084846040518083815260200182805190602001908083835b6020831015156107dd57805182526020820191506020810190506020830392506107b8565b6001836020036101000a03801982511681845116808217855250505050505090500192505050604051809103902090508181604051808360001916600019168152602001826000191660001916815260200192505050604051809103902092505050929150505600a165627a7a7230582048f40437cb590ce3e70b6f13daaabe808452be43255e6f2ecadddb28e6a150640029",
  "source": "pragma solidity ^0.4.11;\n\ncontract CheckSign {\n  function recoverAddr(bytes32 msgHash, uint8 v, bytes32 r, bytes32 s) public pure returns (address) {\n    return ecrecover(msgHash, v, r, s);\n  }\n\n  function isSigned(address _addr, bytes32 msgHash, uint8 v, bytes32 r, bytes32 s) public pure returns(bool) {\n    return ecrecover(msgHash, v, r, s) == _addr;\n  }\n\n  function recoverTypedSignAddr(uint value, uint8 v, bytes32 r, bytes32 s) public pure returns (address) {\n    return ecrecover(hashTyped(value), v, r, s);\n  }\n\n  function isTypedSigned(address _addr, uint value, uint8 v, bytes32 r, bytes32 s) public pure returns (bool) {\n    return ecrecover(hashTyped(value), v, r, s) == _addr;\n  }\n\n  function recoverTypedSignAddrDb(uint value, string mess, uint8 v, bytes32 r, bytes32 s) public pure returns (address) {\n    return ecrecover(hashTypedDb(value, mess), v, r, s);\n  }\n\n  function hashTyped(uint value) internal pure returns (bytes32) {\n    var h1 = keccak256(\"uint message\");\n    var h2 = keccak256(value);\n    return keccak256(h1, h2);\n  }\n\n  function hashTypedDb(uint value, string mess) internal pure returns (bytes32) {\n    var h1 = keccak256(\"uint message\", \"string text\");\n    var h2 = keccak256(value, mess);\n    return keccak256(h1, h2);\n  }\n\n}\n",
  "sourcePath": "/Users/edouard/Downloads/demoSignEth/contracts/CheckSign.sol",
  "compiler": {
    "name": "solc",
    "version": "0.4.18+commit.9cf6e910.Emscripten.clang"
  },
  "schemaVersion": "1.0.1",
  "updatedAt": "2017-11-12T15:30:12.000Z"
}