{
  "contractName": "CheckSign",
  "abi": [
    {
      "constant": true,
      "inputs": [
        {
          "name": "_addr",
          "type": "address"
        },
        {
          "name": "value",
          "type": "uint256"
        },
        {
          "name": "v",
          "type": "uint8"
        },
        {
          "name": "r",
          "type": "bytes32"
        },
        {
          "name": "s",
          "type": "bytes32"
        }
      ],
      "name": "isTypedSigned",
      "outputs": [
        {
          "name": "",
          "type": "bool"
        }
      ],
      "payable": false,
      "stateMutability": "pure",
      "type": "function"
    },
    {
      "constant": true,
      "inputs": [
        {
          "name": "value",
          "type": "uint256"
        },
        {
          "name": "v",
          "type": "uint8"
        },
        {
          "name": "r",
          "type": "bytes32"
        },
        {
          "name": "s",
          "type": "bytes32"
        }
      ],
      "name": "recoverTypedSignAddr",
      "outputs": [
        {
          "name": "",
          "type": "address"
        }
      ],
      "payable": false,
      "stateMutability": "pure",
      "type": "function"
    },
    {
      "constant": true,
      "inputs": [
        {
          "name": "_addr",
          "type": "address"
        },
        {
          "name": "msgHash",
          "type": "bytes32"
        },
        {
          "name": "v",
          "type": "uint8"
        },
        {
          "name": "r",
          "type": "bytes32"
        },
        {
          "name": "s",
          "type": "bytes32"
        }
      ],
      "name": "isSigned",
      "outputs": [
        {
          "name": "",
          "type": "bool"
        }
      ],
      "payable": false,
      "stateMutability": "pure",
      "type": "function"
    },
    {
      "constant": true,
      "inputs": [
        {
          "name": "msgHash",
          "type": "bytes32"
        },
        {
          "name": "v",
          "type": "uint8"
        },
        {
          "name": "r",
          "type": "bytes32"
        },
        {
          "name": "s",
          "type": "bytes32"
        }
      ],
      "name": "recoverAddr",
      "outputs": [
        {
          "name": "",
          "type": "address"
        }
      ],
      "payable": false,
      "stateMutability": "pure",
      "type": "function"
    }
  ],
  "bytecode": "0x6060604052341561000f57600080fd5b6105f38061001e6000396000f300606060405260043610610062576000357c0100000000000000000000000000000000000000000000000000000000900463ffffffff1680635dfe73e8146100675780637ba314ae146100e75780638677ebe814610170578063e5df669f146101f4575b600080fd5b341561007257600080fd5b6100cd600480803573ffffffffffffffffffffffffffffffffffffffff1690602001909190803590602001909190803560ff169060200190919080356000191690602001909190803560001916906020019091905050610281565b604051808215151515815260200191505060405180910390f35b34156100f257600080fd5b61012e600480803590602001909190803560ff16906020019091908035600019169060200190919080356000191690602001909190505061034b565b604051808273ffffffffffffffffffffffffffffffffffffffff1673ffffffffffffffffffffffffffffffffffffffff16815260200191505060405180910390f35b341561017b57600080fd5b6101da600480803573ffffffffffffffffffffffffffffffffffffffff169060200190919080356000191690602001909190803560ff1690602001909190803560001916906020019091908035600019169060200190919050506103e6565b604051808215151515815260200191505060405180910390f35b34156101ff57600080fd5b61023f60048080356000191690602001909190803560ff1690602001909190803560001916906020019091908035600019169060200190919050506104a8565b604051808273ffffffffffffffffffffffffffffffffffffffff1673ffffffffffffffffffffffffffffffffffffffff16815260200191505060405180910390f35b60008573ffffffffffffffffffffffffffffffffffffffff1660016102a58761053b565b868686604051600081526020016040526000604051602001526040518085600019166000191681526020018460ff1660ff16815260200183600019166000191681526020018260001916600019168152602001945050505050602060405160208103908084039060008661646e5a03f1151561032057600080fd5b50506020604051035173ffffffffffffffffffffffffffffffffffffffff1614905095945050505050565b600060016103588661053b565b858585604051600081526020016040526000604051602001526040518085600019166000191681526020018460ff1660ff16815260200183600019166000191681526020018260001916600019168152602001945050505050602060405160208103908084039060008661646e5a03f115156103d357600080fd5b5050602060405103519050949350505050565b60008573ffffffffffffffffffffffffffffffffffffffff16600186868686604051600081526020016040526000604051602001526040518085600019166000191681526020018460ff1660ff16815260200183600019166000191681526020018260001916600019168152602001945050505050602060405160208103908084039060008661646e5a03f1151561047d57600080fd5b50506020604051035173ffffffffffffffffffffffffffffffffffffffff1614905095945050505050565b6000600185858585604051600081526020016040526000604051602001526040518085600019166000191681526020018460ff1660ff16815260200183600019166000191681526020018260001916600019168152602001945050505050602060405160208103908084039060008661646e5a03f1151561052857600080fd5b5050602060405103519050949350505050565b600080600060405180807f75696e74206d6573736167650000000000000000000000000000000000000000815250600c0190506040518091039020915083604051808281526020019150506040518091039020905081816040518083600019166000191681526020018260001916600019168152602001925050506040518091039020925050509190505600a165627a7a72305820aff74de15f6f223f73d92cc2a866a16782fd2519cba051cee93387fc8e5f36aa0029",
  "source": "pragma solidity ^0.4.11;\n\ncontract CheckSign {\n  function recoverAddr(bytes32 msgHash, uint8 v, bytes32 r, bytes32 s) public pure returns (address) {\n    return ecrecover(msgHash, v, r, s);\n  }\n\n  function isSigned(address _addr, bytes32 msgHash, uint8 v, bytes32 r, bytes32 s) public pure returns(bool) {\n    return ecrecover(msgHash, v, r, s) == _addr;\n  }\n\n  function recoverTypedSignAddr(uint value, uint8 v, bytes32 r, bytes32 s) public pure returns (address) {\n    return ecrecover(test(value), v, r, s);\n  }\n\n  function isTypedSigned(address _addr, uint value, uint8 v, bytes32 r, bytes32 s) public pure returns (bool) {\n    return ecrecover(test(value), v, r, s) == _addr;\n  }\n\n  function test(uint value) internal pure returns (bytes32) {\n    var h1 = keccak256(\"uint message\");\n    var h2 = keccak256(value);\n    return keccak256(h1, h2);\n  }\n\n}\n",
  "sourcePath": "/Users/edouard/Downloads/demo/contracts/CheckSign.sol",
  "compiler": {
    "name": "solc",
    "version": "0.4.18+commit.9cf6e910.Emscripten.clang"
  },
  "schemaVersion": "1.0.1",
  "updatedAt": "2017-11-12T12:08:32.766Z"
}